:100000000C945C000C9479000C9479000C947900A9
:100010000C9479000C9479000C9479000C9479007C
:100020000C9479000C9479000C9479000C9479006C
:100030000C9479000C9479000C9479000C9479005C
:100040000C9496000C9479000C9479000C9479002F
:100050000C9479000C9479000C9479000C9479003C
:100060000C9479000C947900000000080002010053
:100070000003040700000000000000000102040863
:100080001020408001020408102001020408102002
:10009000040404040404040402020202020203032E
:1000A0000303030300000000250028002B000000CC
:1000B0000000240027002A0011241FBECFEFD8E043
:1000C000DEBFCDBF11E0A0E0B1E0EAE1F5E002C0A3
:1000D00005900D92A230B107D9F721E0A2E0B1E07E
:1000E00001C01D92AD30B207E1F70E947B020C9473
:1000F0008B020C94000061E083E00C940B0280E022
:100100000E94660197FD0396BC01759567957595EC
:100110006795709303016093020183E00E9483015D
:100120006EE170E080E090E00C9403011F920F926A
:100130000FB60F9211242F933F938F939F93AF93FA
:10014000BF938091050190910601A0910701B091A4
:1001500008013091040123E0230F2D3720F401968C
:10016000A11DB11D05C026E8230F0296A11DB11DDA
:10017000209304018093050190930601A093070149
:10018000B09308018091090190910A01A0910B019F
:10019000B0910C010196A11DB11D809309019093AE
:1001A0000A01A0930B01B0930C01BF91AF919F91F5
:1001B0008F913F912F910F900FBE0F901F90189528
:1001C0003FB7F8948091090190910A01A0910B0129
:1001D000B0910C0126B5A89B05C02F3F19F00196E0
:1001E000A11DB11D3FBF6627782F892F9A2F620F5F
:1001F000711D811D911D42E0660F771F881F991F99
:100200004A95D1F70895CF92DF92EF92FF92CF9364
:10021000DF936B017C010E94E000EB01C114D1046B
:10022000E104F10489F00E948A020E94E0006C1B44
:100230007D0B683E734090F381E0C81AD108E10855
:10024000F108C851DC4FEACFDF91CF91FF90EF90DA
:10025000DF90CF900895789484B5826084BD84B592
:10026000816084BD85B5826085BD85B5816085BDB1
:10027000EEE6F0E0808181608083E1E8F0E01082CA
:10028000808182608083808181608083E0E8F0E00B
:10029000808181608083E1EBF0E0808184608083F5
:1002A000E0EBF0E0808181608083EAE7F0E080812C
:1002B000846080838081826080838081816080838C
:1002C0008081806880831092C10008958E3008F08C
:1002D0008E5087702091000190E4299F9001112495
:1002E000822B80937C0080917A00806480937A00D6
:1002F00080917A0086FDFCCF809178002091790072
:1003000090E0922B08951F93CF93DF93182FEB016A
:1003100061E00E940B02209711F460E004C0CF3F1F
:10032000D10539F461E0812FDF91CF911F910C94B9
:100330004402E12FF0E0E859FF4FE491E330F9F097
:1003400048F4E130B9F0E230A1F584B5806284BDB3
:10035000C8BD34C0E730E9F0E83019F1E43049F5C0
:1003600080918000806280938000D0938B00C09346
:100370008A0024C084B5806884BDC7BD1FC0809139
:100380008000806880938000D0938900C0938800AB
:1003900015C08091B00080688093B000C093B30016
:1003A0000DC08091B00080628093B000C093B40013
:1003B00005C0C038D1050CF0B5CFAFCFDF91CF91DC
:1003C0001F910895833081F028F4813099F08230B4
:1003D000A1F008958730A9F08830B9F08430D1F4C5
:1003E000809180008F7D03C0809180008F77809303
:1003F0008000089584B58F7702C084B58F7D84BD59
:1004000008958091B0008F7703C08091B0008F7DF8
:100410008093B0000895CF93DF9390E0FC01E458FF
:10042000FF4F2491FC01E057FF4F8491882349F14D
:1004300090E0880F991FFC01E255FF4FA591B49100
:100440008C559F4FFC01C591D4919FB7611108C095
:10045000F8948C91209582238C93888182230AC002
:10046000623051F4F8948C91322F309583238C9321
:100470008881822B888304C0F8948C91822B8C9382
:100480009FBFDF91CF9108950F931F93CF93DF9379
:100490001F92CDB7DEB7282F30E0F901E859FF4FA2
:1004A0008491F901E458FF4F1491F901E057FF4F8F
:1004B00004910023C9F0882321F069830E94E2019E
:1004C0006981E02FF0E0EE0FFF1FEC55FF4FA59183
:1004D000B4919FB7F8948C91611103C0109581235A
:1004E00001C0812B8C939FBF0F90DF91CF911F9103
:1004F0000F91089508950E942B010E947A020E9494
:100500007B00C0E0D0E00E947F002097E1F30E94D2
:0A0510000000F9CF0895F894FFCF22
:02051A000100DE
:00000001FF
